{
    "_format": "hh-sol-artifact-1",
    "contractName": "MyEpicNFT",
    "sourceName": "contracts/MyEpicNFT.sol",
    "abi": [
        {
            "inputs": [],
            "stateMutability": "nonpayable",
            "type": "constructor"
        },
        {
            "anonymous": false,
            "inputs": [
                {
                    "indexed": true,
                    "internalType": "address",
                    "name": "owner",
                    "type": "address"
                },
                {
                    "indexed": true,
                    "internalType": "address",
                    "name": "approved",
                    "type": "address"
                },
                {
                    "indexed": true,
                    "internalType": "uint256",
                    "name": "tokenId",
                    "type": "uint256"
                }
            ],
            "name": "Approval",
            "type": "event"
        },
        {
            "anonymous": false,
            "inputs": [
                {
                    "indexed": true,
                    "internalType": "address",
                    "name": "owner",
                    "type": "address"
                },
                {
                    "indexed": true,
                    "internalType": "address",
                    "name": "operator",
                    "type": "address"
                },
                {
                    "indexed": false,
                    "internalType": "bool",
                    "name": "approved",
                    "type": "bool"
                }
            ],
            "name": "ApprovalForAll",
            "type": "event"
        },
        {
            "anonymous": false,
            "inputs": [
                {
                    "indexed": false,
                    "internalType": "address",
                    "name": "sender",
                    "type": "address"
                },
                {
                    "indexed": false,
                    "internalType": "uint256",
                    "name": "tokenId",
                    "type": "uint256"
                }
            ],
            "name": "NewEpicNFTMinted",
            "type": "event"
        },
        {
            "anonymous": false,
            "inputs": [
                {
                    "indexed": true,
                    "internalType": "address",
                    "name": "from",
                    "type": "address"
                },
                {
                    "indexed": true,
                    "internalType": "address",
                    "name": "to",
                    "type": "address"
                },
                {
                    "indexed": true,
                    "internalType": "uint256",
                    "name": "tokenId",
                    "type": "uint256"
                }
            ],
            "name": "Transfer",
            "type": "event"
        },
        {
            "inputs": [
                {
                    "internalType": "address",
                    "name": "to",
                    "type": "address"
                },
                {
                    "internalType": "uint256",
                    "name": "tokenId",
                    "type": "uint256"
                }
            ],
            "name": "approve",
            "outputs": [],
            "stateMutability": "nonpayable",
            "type": "function"
        },
        {
            "inputs": [
                {
                    "internalType": "address",
                    "name": "owner",
                    "type": "address"
                }
            ],
            "name": "balanceOf",
            "outputs": [
                {
                    "internalType": "uint256",
                    "name": "",
                    "type": "uint256"
                }
            ],
            "stateMutability": "view",
            "type": "function"
        },
        {
            "inputs": [
                {
                    "internalType": "uint256",
                    "name": "tokenId",
                    "type": "uint256"
                }
            ],
            "name": "getApproved",
            "outputs": [
                {
                    "internalType": "address",
                    "name": "",
                    "type": "address"
                }
            ],
            "stateMutability": "view",
            "type": "function"
        },
        {
            "inputs": [],
            "name": "getTotalNFTsMintedSoFar",
            "outputs": [
                {
                    "internalType": "uint256",
                    "name": "",
                    "type": "uint256"
                }
            ],
            "stateMutability": "view",
            "type": "function"
        },
        {
            "inputs": [
                {
                    "internalType": "address",
                    "name": "owner",
                    "type": "address"
                },
                {
                    "internalType": "address",
                    "name": "operator",
                    "type": "address"
                }
            ],
            "name": "isApprovedForAll",
            "outputs": [
                {
                    "internalType": "bool",
                    "name": "",
                    "type": "bool"
                }
            ],
            "stateMutability": "view",
            "type": "function"
        },
        {
            "inputs": [],
            "name": "makeAnEpicNFT",
            "outputs": [],
            "stateMutability": "nonpayable",
            "type": "function"
        },
        {
            "inputs": [],
            "name": "name",
            "outputs": [
                {
                    "internalType": "string",
                    "name": "",
                    "type": "string"
                }
            ],
            "stateMutability": "view",
            "type": "function"
        },
        {
            "inputs": [
                {
                    "internalType": "uint256",
                    "name": "tokenId",
                    "type": "uint256"
                }
            ],
            "name": "ownerOf",
            "outputs": [
                {
                    "internalType": "address",
                    "name": "",
                    "type": "address"
                }
            ],
            "stateMutability": "view",
            "type": "function"
        },
        {
            "inputs": [
                {
                    "internalType": "uint256",
                    "name": "tokenId",
                    "type": "uint256"
                }
            ],
            "name": "pickRandomColor",
            "outputs": [
                {
                    "internalType": "string",
                    "name": "",
                    "type": "string"
                }
            ],
            "stateMutability": "view",
            "type": "function"
        },
        {
            "inputs": [
                {
                    "internalType": "uint256",
                    "name": "tokenId",
                    "type": "uint256"
                }
            ],
            "name": "pickRandomFirstWord",
            "outputs": [
                {
                    "internalType": "string",
                    "name": "",
                    "type": "string"
                }
            ],
            "stateMutability": "view",
            "type": "function"
        },
        {
            "inputs": [
                {
                    "internalType": "uint256",
                    "name": "tokenId",
                    "type": "uint256"
                }
            ],
            "name": "pickRandomSecondWord",
            "outputs": [
                {
                    "internalType": "string",
                    "name": "",
                    "type": "string"
                }
            ],
            "stateMutability": "view",
            "type": "function"
        },
        {
            "inputs": [
                {
                    "internalType": "uint256",
                    "name": "tokenId",
                    "type": "uint256"
                }
            ],
            "name": "pickRandomThirdWord",
            "outputs": [
                {
                    "internalType": "string",
                    "name": "",
                    "type": "string"
                }
            ],
            "stateMutability": "view",
            "type": "function"
        },
        {
            "inputs": [
                {
                    "internalType": "address",
                    "name": "from",
                    "type": "address"
                },
                {
                    "internalType": "address",
                    "name": "to",
                    "type": "address"
                },
                {
                    "internalType": "uint256",
                    "name": "tokenId",
                    "type": "uint256"
                }
            ],
            "name": "safeTransferFrom",
            "outputs": [],
            "stateMutability": "nonpayable",
            "type": "function"
        },
        {
            "inputs": [
                {
                    "internalType": "address",
                    "name": "from",
                    "type": "address"
                },
                {
                    "internalType": "address",
                    "name": "to",
                    "type": "address"
                },
                {
                    "internalType": "uint256",
                    "name": "tokenId",
                    "type": "uint256"
                },
                {
                    "internalType": "bytes",
                    "name": "_data",
                    "type": "bytes"
                }
            ],
            "name": "safeTransferFrom",
            "outputs": [],
            "stateMutability": "nonpayable",
            "type": "function"
        },
        {
            "inputs": [
                {
                    "internalType": "address",
                    "name": "operator",
                    "type": "address"
                },
                {
                    "internalType": "bool",
                    "name": "approved",
                    "type": "bool"
                }
            ],
            "name": "setApprovalForAll",
            "outputs": [],
            "stateMutability": "nonpayable",
            "type": "function"
        },
        {
            "inputs": [
                {
                    "internalType": "bytes4",
                    "name": "interfaceId",
                    "type": "bytes4"
                }
            ],
            "name": "supportsInterface",
            "outputs": [
                {
                    "internalType": "bool",
                    "name": "",
                    "type": "bool"
                }
            ],
            "stateMutability": "view",
            "type": "function"
        },
        {
            "inputs": [],
            "name": "symbol",
            "outputs": [
                {
                    "internalType": "string",
                    "name": "",
                    "type": "string"
                }
            ],
            "stateMutability": "view",
            "type": "function"
        },
        {
            "inputs": [
                {
                    "internalType": "uint256",
                    "name": "tokenId",
                    "type": "uint256"
                }
            ],
            "name": "tokenURI",
            "outputs": [
                {
                    "internalType": "string",
                    "name": "",
                    "type": "string"
                }
            ],
            "stateMutability": "view",
            "type": "function"
        },
        {
            "inputs": [],
            "name": "totalSupply",
            "outputs": [
                {
                    "internalType": "uint256",
                    "name": "",
                    "type": "uint256"
                }
            ],
            "stateMutability": "view",
            "type": "function"
        },
        {
            "inputs": [
                {
                    "internalType": "address",
                    "name": "from",
                    "type": "address"
                },
                {
                    "internalType": "address",
                    "name": "to",
                    "type": "address"
                },
                {
                    "internalType": "uint256",
                    "name": "tokenId",
                    "type": "uint256"
                }
            ],
            "name": "transferFrom",
            "outputs": [],
            "stateMutability": "nonpayable",
            "type": "function"
        }
    ],
    "bytecode": "0x6080604052606460085560405180610100016040528060d38152602001620044a760d39139600990805190602001906200003b9291906200061e565b506040518060800160405280605681526020016200457a60569139600a90805190602001906200006d9291906200061e565b5060405180606001604052806040518060400160405280600481526020017f424c41480000000000000000000000000000000000000000000000000000000081525081526020016040518060400160405280600481526020017f424c41480000000000000000000000000000000000000000000000000000000081525081526020016040518060400160405280600481526020017f424c414800000000000000000000000000000000000000000000000000000000815250815250600b9060036200013a929190620006af565b5060405180606001604052806040518060400160405280600481526020017f424c41480000000000000000000000000000000000000000000000000000000081525081526020016040518060400160405280600481526020017f424c41480000000000000000000000000000000000000000000000000000000081525081526020016040518060400160405280600481526020017f424c414800000000000000000000000000000000000000000000000000000000815250815250600c90600362000207929190620006af565b5060405180606001604052806040518060400160405280600481526020017f424c41480000000000000000000000000000000000000000000000000000000081525081526020016040518060400160405280600481526020017f424c41480000000000000000000000000000000000000000000000000000000081525081526020016040518060400160405280600481526020017f424c414800000000000000000000000000000000000000000000000000000000815250815250600d906003620002d4929190620006af565b506040518060c001604052806040518060400160405280600381526020017f726564000000000000000000000000000000000000000000000000000000000081525081526020016040518060400160405280600781526020017f233038433241380000000000000000000000000000000000000000000000000081525081526020016040518060400160405280600581526020017f626c61636b00000000000000000000000000000000000000000000000000000081525081526020016040518060400160405280600681526020017f79656c6c6f77000000000000000000000000000000000000000000000000000081525081526020016040518060400160405280600481526020017f626c75650000000000000000000000000000000000000000000000000000000081525081526020016040518060400160405280600581526020017f677265656e000000000000000000000000000000000000000000000000000000815250815250600e9060066200045292919062000716565b503480156200046057600080fd5b506040518060400160405280600981526020017f5371756172654e465400000000000000000000000000000000000000000000008152506040518060400160405280600681526020017f53515541524500000000000000000000000000000000000000000000000000008152508160009080519060200190620004e59291906200061e565b508060019080519060200190620004fe9291906200061e565b5050506200054c6040518060400160405280601e81526020017f54686973206973206d79204e465420636f6e74726163742e20576f61682100008152506200055260201b620012d81760201c565b62000937565b620005f2816040516024016200056991906200084b565b6040516020818303038152906040527f41304fac000000000000000000000000000000000000000000000000000000007bffffffffffffffffffffffffffffffffffffffffffffffffffffffff19166020820180517bffffffffffffffffffffffffffffffffffffffffffffffffffffffff8381831617835250505050620005f560201b60201c565b50565b60008151905060006a636f6e736f6c652e6c6f679050602083016000808483855afa5050505050565b8280546200062c90620008c1565b90600052602060002090601f0160209004810192826200065057600085556200069c565b82601f106200066b57805160ff19168380011785556200069c565b828001600101855582156200069c579182015b828111156200069b5782518255916020019190600101906200067e565b5b509050620006ab91906200077d565b5090565b82805482825590600052602060002090810192821562000703579160200282015b8281111562000702578251829080519060200190620006f19291906200061e565b5091602001919060010190620006d0565b5b5090506200071291906200079c565b5090565b8280548282559060005260206000209081019282156200076a579160200282015b8281111562000769578251829080519060200190620007589291906200061e565b509160200191906001019062000737565b5b5090506200077991906200079c565b5090565b5b80821115620007985760008160009055506001016200077e565b5090565b5b80821115620007c05760008181620007b69190620007c4565b506001016200079d565b5090565b508054620007d290620008c1565b6000825580601f10620007e6575062000807565b601f0160209004906000526020600020908101906200080691906200077d565b5b50565b600062000817826200086f565b6200082381856200087a565b9350620008358185602086016200088b565b620008408162000926565b840191505092915050565b600060208201905081810360008301526200086781846200080a565b905092915050565b600081519050919050565b600082825260208201905092915050565b60005b83811015620008ab5780820151818401526020810190506200088e565b83811115620008bb576000848401525b50505050565b60006002820490506001821680620008da57607f821691505b60208210811415620008f157620008f0620008f7565b5b50919050565b7f4e487b7100000000000000000000000000000000000000000000000000000000600052602260045260246000fd5b6000601f19601f8301169050919050565b613b6080620009476000396000f3fe608060405234801561001057600080fd5b506004361061012c5760003560e01c80636352211e116100ad578063b88d4fde11610071578063b88d4fde14610369578063c575757a14610385578063c87b56dd146103b5578063de9d132f146103e5578063e985e9c5146103ef5761012c565b80636352211e1461029f57806370a08231146102cf57806395d89b41146102ff578063a22cb4651461031d578063b187301f146103395761012c565b806318160ddd116100f457806318160ddd146101e957806323b872dd146102075780632de38d681461022357806342842e0e14610253578063514dc8c61461026f5761012c565b806301ffc9a714610131578063060475901461016157806306fdde031461017f578063081812fc1461019d578063095ea7b3146101cd575b600080fd5b61014b600480360381019061014691906126d8565b61041f565b60405161015891906133b6565b60405180910390f35b610169610501565b6040516101769190613651565b60405180910390f35b610187610512565b60405161019491906133d1565b60405180910390f35b6101b760048036038101906101b2919061272a565b6105a4565b6040516101c49190613326565b60405180910390f35b6101e760048036038101906101e2919061269c565b610629565b005b6101f1610741565b6040516101fe9190613651565b60405180910390f35b610221600480360381019061021c9190612596565b610747565b005b61023d6004803603810190610238919061272a565b6107a7565b60405161024a91906133d1565b60405180910390f35b61026d60048036038101906102689190612596565b6108c5565b005b6102896004803603810190610284919061272a565b6108e5565b60405161029691906133d1565b60405180910390f35b6102b960048036038101906102b4919061272a565b610a03565b6040516102c69190613326565b60405180910390f35b6102e960048036038101906102e49190612531565b610ab5565b6040516102f69190613651565b60405180910390f35b610307610b6d565b60405161031491906133d1565b60405180910390f35b61033760048036038101906103329190612660565b610bff565b005b610353600480360381019061034e919061272a565b610c15565b60405161036091906133d1565b60405180910390f35b610383600480360381019061037e91906125e5565b610d33565b005b61039f600480360381019061039a919061272a565b610d95565b6040516103ac91906133d1565b60405180910390f35b6103cf60048036038101906103ca919061272a565b610eb3565b6040516103dc91906133d1565b60405180910390f35b6103ed611005565b005b6104096004803603810190610404919061255a565b611244565b60405161041691906133b6565b60405180910390f35b60007f80ac58cd000000000000000000000000000000000000000000000000000000007bffffffffffffffffffffffffffffffffffffffffffffffffffffffff1916827bffffffffffffffffffffffffffffffffffffffffffffffffffffffff191614806104ea57507f5b5e139f000000000000000000000000000000000000000000000000000000007bffffffffffffffffffffffffffffffffffffffffffffffffffffffff1916827bffffffffffffffffffffffffffffffffffffffffffffffffffffffff1916145b806104fa57506104f982611371565b5b9050919050565b600061050d60076113db565b905090565b606060008054610521906138f0565b80601f016020809104026020016040519081016040528092919081815260200182805461054d906138f0565b801561059a5780601f1061056f5761010080835404028352916020019161059a565b820191906000526020600020905b81548152906001019060200180831161057d57829003601f168201915b5050505050905090565b60006105af826113e9565b6105ee576040517f08c379a00000000000000000000000000000000000000000000000000000000081526004016105e5906135b1565b60405180910390fd5b6004600083815260200190815260200160002060009054906101000a900473ffffffffffffffffffffffffffffffffffffffff169050919050565b600061063482610a03565b90508073ffffffffffffffffffffffffffffffffffffffff168373ffffffffffffffffffffffffffffffffffffffff1614156106a5576040517f08c379a000000000000000000000000000000000000000000000000000000000815260040161069c90613611565b60405180910390fd5b8073ffffffffffffffffffffffffffffffffffffffff166106c4611455565b73ffffffffffffffffffffffffffffffffffffffff1614806106f357506106f2816106ed611455565b611244565b5b610732576040517f08c379a0000000000000000000000000000000000000000000000000000000008152600401610729906134f1565b60405180910390fd5b61073c838361145d565b505050565b60085481565b610758610752611455565b82611516565b610797576040517f08c379a000000000000000000000000000000000000000000000000000000000815260040161078e90613631565b60405180910390fd5b6107a28383836115f4565b505050565b606060006107db6107b784611850565b6040516020016107c791906132c0565b6040516020818303038152906040526119fd565b9050600b80549050816107ee919061396b565b9050600b818154811061082a577f4e487b7100000000000000000000000000000000000000000000000000000000600052603260045260246000fd5b90600052602060002001805461083f906138f0565b80601f016020809104026020016040519081016040528092919081815260200182805461086b906138f0565b80156108b85780601f1061088d576101008083540402835291602001916108b8565b820191906000526020600020905b81548152906001019060200180831161089b57829003601f168201915b5050505050915050919050565b6108e083838360405180602001604052806000815250610d33565b505050565b606060006109196108f584611850565b6040516020016109059190613304565b6040516020818303038152906040526119fd565b9050600e805490508161092c919061396b565b9050600e8181548110610968577f4e487b7100000000000000000000000000000000000000000000000000000000600052603260045260246000fd5b90600052602060002001805461097d906138f0565b80601f01602080910402602001604051908101604052809291908181526020018280546109a9906138f0565b80156109f65780601f106109cb576101008083540402835291602001916109f6565b820191906000526020600020905b8154815290600101906020018083116109d957829003601f168201915b5050505050915050919050565b6000806002600084815260200190815260200160002060009054906101000a900473ffffffffffffffffffffffffffffffffffffffff169050600073ffffffffffffffffffffffffffffffffffffffff168173ffffffffffffffffffffffffffffffffffffffff161415610aac576040517f08c379a0000000000000000000000000000000000000000000000000000000008152600401610aa390613531565b60405180910390fd5b80915050919050565b60008073ffffffffffffffffffffffffffffffffffffffff168273ffffffffffffffffffffffffffffffffffffffff161415610b26576040517f08c379a0000000000000000000000000000000000000000000000000000000008152600401610b1d90613511565b60405180910390fd5b600360008373ffffffffffffffffffffffffffffffffffffffff1673ffffffffffffffffffffffffffffffffffffffff168152602001908152602001600020549050919050565b606060018054610b7c906138f0565b80601f0160208091040260200160405190810160405280929190818152602001828054610ba8906138f0565b8015610bf55780601f10610bca57610100808354040283529160200191610bf5565b820191906000526020600020905b815481529060010190602001808311610bd857829003601f168201915b5050505050905090565b610c11610c0a611455565b8383611a30565b5050565b60606000610c49610c2584611850565b604051602001610c359190613259565b6040516020818303038152906040526119fd565b9050600c8054905081610c5c919061396b565b9050600c8181548110610c98577f4e487b7100000000000000000000000000000000000000000000000000000000600052603260045260246000fd5b906000526020600020018054610cad906138f0565b80601f0160208091040260200160405190810160405280929190818152602001828054610cd9906138f0565b8015610d265780601f10610cfb57610100808354040283529160200191610d26565b820191906000526020600020905b815481529060010190602001808311610d0957829003601f168201915b5050505050915050919050565b610d44610d3e611455565b83611516565b610d83576040517f08c379a0000000000000000000000000000000000000000000000000000000008152600401610d7a90613631565b60405180910390fd5b610d8f84848484611b9d565b50505050565b60606000610dc9610da584611850565b604051602001610db59190613237565b6040516020818303038152906040526119fd565b9050600d8054905081610ddc919061396b565b9050600d8181548110610e18577f4e487b7100000000000000000000000000000000000000000000000000000000600052603260045260246000fd5b906000526020600020018054610e2d906138f0565b80601f0160208091040260200160405190810160405280929190818152602001828054610e59906138f0565b8015610ea65780601f10610e7b57610100808354040283529160200191610ea6565b820191906000526020600020905b815481529060010190602001808311610e8957829003601f168201915b5050505050915050919050565b6060610ebe826113e9565b610efd576040517f08c379a0000000000000000000000000000000000000000000000000000000008152600401610ef490613591565b60405180910390fd5b6000600660008481526020019081526020016000208054610f1d906138f0565b80601f0160208091040260200160405190810160405280929190818152602001828054610f49906138f0565b8015610f965780601f10610f6b57610100808354040283529160200191610f96565b820191906000526020600020905b815481529060010190602001808311610f7957829003601f168201915b505050505090506000610fa7611bf9565b9050600081511415610fbd578192505050611000565b600082511115610ff2578082604051602001610fda929190613199565b60405160208183030381529060405292505050611000565b610ffb84611c10565b925050505b919050565b600061101160076113db565b9050600854811115611058576040517f08c379a000000000000000000000000000000000000000000000000000000000815260040161104f90613471565b60405180910390fd5b6000611063826107a7565b9050600061107083610c15565b9050600061107d84610d95565b90506000838383604051602001611096939291906131bd565b604051602081830303815290604052905060006110b2866108e5565b90506000600982600a856040516020016110cf94939291906131ee565b60405160208183030381529060405290506000611114846110ef84611cb7565b60405160200161110092919061327b565b604051602081830303815290604052611cb7565b905060008160405160200161112991906132e2565b60405160208183030381529060405290506111786040518060400160405280601581526020017f0a2d2d2d2d2d2d2d2d2d2d2d2d2d2d2d2d2d2d2d2d00000000000000000000008152506112d8565b611181816112d8565b6111bf6040518060400160405280601581526020017f2d2d2d2d2d2d2d2d2d2d2d2d2d2d2d2d2d2d2d2d0a00000000000000000000008152506112d8565b6111c9338a611e75565b6111d38982611e93565b6111dd6007611f07565b611200604051806060016040528060258152602001613ac6602591398a33611f1d565b7febb98688741ffa4c7589bf325de30cf7becb63de567842e1ccdb6cb949fdc82c338a60405161123192919061338d565b60405180910390a1505050505050505050565b6000600560008473ffffffffffffffffffffffffffffffffffffffff1673ffffffffffffffffffffffffffffffffffffffff16815260200190815260200160002060008373ffffffffffffffffffffffffffffffffffffffff1673ffffffffffffffffffffffffffffffffffffffff16815260200190815260200160002060009054906101000a900460ff16905092915050565b61136e816040516024016112ec91906133d1565b6040516020818303038152906040527f41304fac000000000000000000000000000000000000000000000000000000007bffffffffffffffffffffffffffffffffffffffffffffffffffffffff19166020820180517bffffffffffffffffffffffffffffffffffffffffffffffffffffffff8381831617835250505050611fbc565b50565b60007f01ffc9a7000000000000000000000000000000000000000000000000000000007bffffffffffffffffffffffffffffffffffffffffffffffffffffffff1916827bffffffffffffffffffffffffffffffffffffffffffffffffffffffff1916149050919050565b600081600001549050919050565b60008073ffffffffffffffffffffffffffffffffffffffff166002600084815260200190815260200160002060009054906101000a900473ffffffffffffffffffffffffffffffffffffffff1673ffffffffffffffffffffffffffffffffffffffff1614159050919050565b600033905090565b816004600083815260200190815260200160002060006101000a81548173ffffffffffffffffffffffffffffffffffffffff021916908373ffffffffffffffffffffffffffffffffffffffff160217905550808273ffffffffffffffffffffffffffffffffffffffff166114d083610a03565b73ffffffffffffffffffffffffffffffffffffffff167f8c5be1e5ebec7d5bd14f71427d1e84f3dd0314c0f7b2291e5b200ac8c7c3b92560405160405180910390a45050565b6000611521826113e9565b611560576040517f08c379a0000000000000000000000000000000000000000000000000000000008152600401611557906134d1565b60405180910390fd5b600061156b83610a03565b90508073ffffffffffffffffffffffffffffffffffffffff168473ffffffffffffffffffffffffffffffffffffffff1614806115da57508373ffffffffffffffffffffffffffffffffffffffff166115c2846105a4565b73ffffffffffffffffffffffffffffffffffffffff16145b806115eb57506115ea8185611244565b5b91505092915050565b8273ffffffffffffffffffffffffffffffffffffffff1661161482610a03565b73ffffffffffffffffffffffffffffffffffffffff161461166a576040517f08c379a0000000000000000000000000000000000000000000000000000000008152600401611661906135d1565b60405180910390fd5b600073ffffffffffffffffffffffffffffffffffffffff168273ffffffffffffffffffffffffffffffffffffffff1614156116da576040517f08c379a00000000000000000000000000000000000000000000000000000000081526004016116d190613491565b60405180910390fd5b6116e5838383611fe5565b6116f060008261145d565b6001600360008573ffffffffffffffffffffffffffffffffffffffff1673ffffffffffffffffffffffffffffffffffffffff16815260200190815260200160002060008282546117409190613806565b925050819055506001600360008473ffffffffffffffffffffffffffffffffffffffff1673ffffffffffffffffffffffffffffffffffffffff16815260200190815260200160002060008282546117979190613725565b92505081905550816002600083815260200190815260200160002060006101000a81548173ffffffffffffffffffffffffffffffffffffffff021916908373ffffffffffffffffffffffffffffffffffffffff160217905550808273ffffffffffffffffffffffffffffffffffffffff168473ffffffffffffffffffffffffffffffffffffffff167fddf252ad1be2c89b69c2b068fc378daa952ba7f163c4a11628f55a4df523b3ef60405160405180910390a4505050565b60606000821415611898576040518060400160405280600181526020017f300000000000000000000000000000000000000000000000000000000000000081525090506119f8565b600082905060005b600082146118ca5780806118b390613922565b915050600a826118c3919061377b565b91506118a0565b60008167ffffffffffffffff81111561190c577f4e487b7100000000000000000000000000000000000000000000000000000000600052604160045260246000fd5b6040519080825280601f01601f19166020018201604052801561193e5781602001600182028036833780820191505090505b5090505b600085146119f1576001826119579190613806565b9150600a85611966919061396b565b60306119729190613725565b60f81b8183815181106119ae577f4e487b7100000000000000000000000000000000000000000000000000000000600052603260045260246000fd5b60200101907effffffffffffffffffffffffffffffffffffffffffffffffffffffffffffff1916908160001a905350600a856119ea919061377b565b9450611942565b8093505050505b919050565b600081604051602001611a109190613182565b6040516020818303038152906040528051906020012060001c9050919050565b8173ffffffffffffffffffffffffffffffffffffffff168373ffffffffffffffffffffffffffffffffffffffff161415611a9f576040517f08c379a0000000000000000000000000000000000000000000000000000000008152600401611a96906134b1565b60405180910390fd5b80600560008573ffffffffffffffffffffffffffffffffffffffff1673ffffffffffffffffffffffffffffffffffffffff16815260200190815260200160002060008473ffffffffffffffffffffffffffffffffffffffff1673ffffffffffffffffffffffffffffffffffffffff16815260200190815260200160002060006101000a81548160ff0219169083151502179055508173ffffffffffffffffffffffffffffffffffffffff168373ffffffffffffffffffffffffffffffffffffffff167f17307eab39ab6107e8899845ad3d59bd9653f200f220920489ca2b5937696c3183604051611b9091906133b6565b60405180910390a3505050565b611ba88484846115f4565b611bb484848484611fea565b611bf3576040517f08c379a0000000000000000000000000000000000000000000000000000000008152600401611bea90613431565b60405180910390fd5b50505050565b606060405180602001604052806000815250905090565b6060611c1b826113e9565b611c5a576040517f08c379a0000000000000000000000000000000000000000000000000000000008152600401611c51906135f1565b60405180910390fd5b6000611c64611bf9565b90506000815111611c845760405180602001604052806000815250611caf565b80611c8e84611850565b604051602001611c9f929190613199565b6040516020818303038152906040525b915050919050565b60606000825190506000811415611ce05760405180602001604052806000815250915050611e70565b60006003600283611cf19190613725565b611cfb919061377b565b6004611d0791906137ac565b90506000602082611d189190613725565b67ffffffffffffffff811115611d57577f4e487b7100000000000000000000000000000000000000000000000000000000600052604160045260246000fd5b6040519080825280601f01601f191660200182016040528015611d895781602001600182028036833780820191505090505b5090506000604051806060016040528060408152602001613aeb604091399050600181016020830160005b86811015611e2d5760038101905062ffffff818a015116603f8160121c168401518060081b905060ff603f83600c1c1686015116810190508060081b905060ff603f8360061c1686015116810190508060081b905060ff603f831686015116810190508060e01b90508084526004840193505050611db4565b506003860660018114611e475760028114611e5757611e62565b613d3d60f01b6002830352611e62565b603d60f81b60018303525b508484525050819450505050505b919050565b611e8f828260405180602001604052806000815250612181565b5050565b611e9c826113e9565b611edb576040517f08c379a0000000000000000000000000000000000000000000000000000000008152600401611ed290613551565b60405180910390fd5b80600660008481526020019081526020016000209080519060200190611f029291906123bd565b505050565b6001816000016000828254019250508190555050565b611fb7838383604051602401611f35939291906133f3565b6040516020818303038152906040527fe3849f79000000000000000000000000000000000000000000000000000000007bffffffffffffffffffffffffffffffffffffffffffffffffffffffff19166020820180517bffffffffffffffffffffffffffffffffffffffffffffffffffffffff8381831617835250505050611fbc565b505050565b60008151905060006a636f6e736f6c652e6c6f679050602083016000808483855afa5050505050565b505050565b600061200b8473ffffffffffffffffffffffffffffffffffffffff166121dc565b15612174578373ffffffffffffffffffffffffffffffffffffffff1663150b7a02612034611455565b8786866040518563ffffffff1660e01b81526004016120569493929190613341565b602060405180830381600087803b15801561207057600080fd5b505af19250505080156120a157506040513d601f19601f8201168201806040525081019061209e9190612701565b60015b612124573d80600081146120d1576040519150601f19603f3d011682016040523d82523d6000602084013e6120d6565b606091505b5060008151141561211c576040517f08c379a000000000000000000000000000000000000000000000000000000000815260040161211390613431565b60405180910390fd5b805181602001fd5b63150b7a0260e01b7bffffffffffffffffffffffffffffffffffffffffffffffffffffffff1916817bffffffffffffffffffffffffffffffffffffffffffffffffffffffff191614915050612179565b600190505b949350505050565b61218b83836121ef565b6121986000848484611fea565b6121d7576040517f08c379a00000000000000000000000000000000000000000000000000000000081526004016121ce90613431565b60405180910390fd5b505050565b600080823b905060008111915050919050565b600073ffffffffffffffffffffffffffffffffffffffff168273ffffffffffffffffffffffffffffffffffffffff16141561225f576040517f08c379a000000000000000000000000000000000000000000000000000000000815260040161225690613571565b60405180910390fd5b612268816113e9565b156122a8576040517f08c379a000000000000000000000000000000000000000000000000000000000815260040161229f90613451565b60405180910390fd5b6122b460008383611fe5565b6001600360008473ffffffffffffffffffffffffffffffffffffffff1673ffffffffffffffffffffffffffffffffffffffff16815260200190815260200160002060008282546123049190613725565b92505081905550816002600083815260200190815260200160002060006101000a81548173ffffffffffffffffffffffffffffffffffffffff021916908373ffffffffffffffffffffffffffffffffffffffff160217905550808273ffffffffffffffffffffffffffffffffffffffff16600073ffffffffffffffffffffffffffffffffffffffff167fddf252ad1be2c89b69c2b068fc378daa952ba7f163c4a11628f55a4df523b3ef60405160405180910390a45050565b8280546123c9906138f0565b90600052602060002090601f0160209004810192826123eb5760008555612432565b82601f1061240457805160ff1916838001178555612432565b82800160010185558215612432579182015b82811115612431578251825591602001919060010190612416565b5b50905061243f9190612443565b5090565b5b8082111561245c576000816000905550600101612444565b5090565b600061247361246e8461369d565b61366c565b90508281526020810184848401111561248b57600080fd5b6124968482856138ae565b509392505050565b6000813590506124ad81613a69565b92915050565b6000813590506124c281613a80565b92915050565b6000813590506124d781613a97565b92915050565b6000815190506124ec81613a97565b92915050565b600082601f83011261250357600080fd5b8135612513848260208601612460565b91505092915050565b60008135905061252b81613aae565b92915050565b60006020828403121561254357600080fd5b60006125518482850161249e565b91505092915050565b6000806040838503121561256d57600080fd5b600061257b8582860161249e565b925050602061258c8582860161249e565b9150509250929050565b6000806000606084860312156125ab57600080fd5b60006125b98682870161249e565b93505060206125ca8682870161249e565b92505060406125db8682870161251c565b9150509250925092565b600080600080608085870312156125fb57600080fd5b60006126098782880161249e565b945050602061261a8782880161249e565b935050604061262b8782880161251c565b925050606085013567ffffffffffffffff81111561264857600080fd5b612654878288016124f2565b91505092959194509250565b6000806040838503121561267357600080fd5b60006126818582860161249e565b9250506020612692858286016124b3565b9150509250929050565b600080604083850312156126af57600080fd5b60006126bd8582860161249e565b92505060206126ce8582860161251c565b9150509250929050565b6000602082840312156126ea57600080fd5b60006126f8848285016124c8565b91505092915050565b60006020828403121561271357600080fd5b6000612721848285016124dd565b91505092915050565b60006020828403121561273c57600080fd5b600061274a8482850161251c565b91505092915050565b61275c8161383a565b82525050565b61276b8161384c565b82525050565b600061277c826136e2565b61278681856136f8565b93506127968185602086016138bd565b61279f81613a58565b840191505092915050565b60006127b5826136ed565b6127bf8185613709565b93506127cf8185602086016138bd565b6127d881613a58565b840191505092915050565b60006127ee826136ed565b6127f8818561371a565b93506128088185602086016138bd565b80840191505092915050565b60008154612821816138f0565b61282b818661371a565b9450600182166000811461284657600181146128575761288a565b60ff1983168652818601935061288a565b612860856136cd565b60005b8381101561288257815481890152600182019150602081019050612863565b838801955050505b50505092915050565b60006128a0603283613709565b91507f4552433732313a207472616e7366657220746f206e6f6e20455243373231526560008301527f63656976657220696d706c656d656e74657200000000000000000000000000006020830152604082019050919050565b6000612906601c83613709565b91507f4552433732313a20746f6b656e20616c7265616479206d696e746564000000006000830152602082019050919050565b6000612946600a8361371a565b91507f54484952445f574f5244000000000000000000000000000000000000000000006000830152600a82019050919050565b6000612986601e83613709565b91507f6d6178206e6674206c696d697420686173206265656e207265616368656400006000830152602082019050919050565b60006129c6602483613709565b91507f4552433732313a207472616e7366657220746f20746865207a65726f2061646460008301527f72657373000000000000000000000000000000000000000000000000000000006020830152604082019050919050565b6000612a2c601983613709565b91507f4552433732313a20617070726f766520746f2063616c6c6572000000000000006000830152602082019050919050565b6000612a6c60638361371a565b91507f222c20226465736372697074696f6e223a20224120686967686c79206163636c60008301527f61696d656420636f6c6c656374696f6e206f6620737175617265732e222c202260208301527f696d616765223a2022646174613a696d6167652f7376672b786d6c3b6261736560408301527f36342c00000000000000000000000000000000000000000000000000000000006060830152606382019050919050565b6000612b1e600b8361371a565b91507f5345434f4e445f574f52440000000000000000000000000000000000000000006000830152600b82019050919050565b6000612b5e602c83613709565b91507f4552433732313a206f70657261746f7220717565727920666f72206e6f6e657860008301527f697374656e7420746f6b656e00000000000000000000000000000000000000006020830152604082019050919050565b6000612bc4600d8361371a565b91507f3c2f746578743e3c2f7376673e000000000000000000000000000000000000006000830152600d82019050919050565b6000612c04603883613709565b91507f4552433732313a20617070726f76652063616c6c6572206973206e6f74206f7760008301527f6e6572206e6f7220617070726f76656420666f7220616c6c00000000000000006020830152604082019050919050565b6000612c6a602a83613709565b91507f4552433732313a2062616c616e636520717565727920666f7220746865207a6560008301527f726f2061646472657373000000000000000000000000000000000000000000006020830152604082019050919050565b6000612cd0602983613709565b91507f4552433732313a206f776e657220717565727920666f72206e6f6e657869737460008301527f656e7420746f6b656e00000000000000000000000000000000000000000000006020830152604082019050919050565b6000612d36602e83613709565b91507f45524337323155524953746f726167653a2055524920736574206f66206e6f6e60008301527f6578697374656e7420746f6b656e0000000000000000000000000000000000006020830152604082019050919050565b6000612d9c60028361371a565b91507f227d0000000000000000000000000000000000000000000000000000000000006000830152600282019050919050565b6000612ddc602083613709565b91507f4552433732313a206d696e7420746f20746865207a65726f20616464726573736000830152602082019050919050565b6000612e1c603183613709565b91507f45524337323155524953746f726167653a2055524920717565727920666f722060008301527f6e6f6e6578697374656e7420746f6b656e0000000000000000000000000000006020830152604082019050919050565b6000612e82602c83613709565b91507f4552433732313a20617070726f76656420717565727920666f72206e6f6e657860008301527f697374656e7420746f6b656e00000000000000000000000000000000000000006020830152604082019050919050565b6000612ee8602983613709565b91507f4552433732313a207472616e73666572206f6620746f6b656e2074686174206960008301527f73206e6f74206f776e00000000000000000000000000000000000000000000006020830152604082019050919050565b6000612f4e602f83613709565b91507f4552433732314d657461646174613a2055524920717565727920666f72206e6f60008301527f6e6578697374656e7420746f6b656e00000000000000000000000000000000006020830152604082019050919050565b6000612fb4600a8361371a565b91507f7b226e616d65223a2022000000000000000000000000000000000000000000006000830152600a82019050919050565b6000612ff4602183613709565b91507f4552433732313a20617070726f76616c20746f2063757272656e74206f776e6560008301527f72000000000000000000000000000000000000000000000000000000000000006020830152604082019050919050565b600061305a600a8361371a565b91507f46495253545f574f5244000000000000000000000000000000000000000000006000830152600a82019050919050565b600061309a601d8361371a565b91507f646174613a6170706c69636174696f6e2f6a736f6e3b6261736536342c0000006000830152601d82019050919050565b60006130da603183613709565b91507f4552433732313a207472616e736665722063616c6c6572206973206e6f74206f60008301527f776e6572206e6f7220617070726f7665640000000000000000000000000000006020830152604082019050919050565b600061314060058361371a565b91507f434f4c4f520000000000000000000000000000000000000000000000000000006000830152600582019050919050565b61317c816138a4565b82525050565b600061318e82846127e3565b915081905092915050565b60006131a582856127e3565b91506131b182846127e3565b91508190509392505050565b60006131c982866127e3565b91506131d582856127e3565b91506131e182846127e3565b9150819050949350505050565b60006131fa8287612814565b915061320682866127e3565b91506132128285612814565b915061321e82846127e3565b915061322982612bb7565b915081905095945050505050565b600061324282612939565b915061324e82846127e3565b915081905092915050565b600061326482612b11565b915061327082846127e3565b915081905092915050565b600061328682612fa7565b915061329282856127e3565b915061329d82612a5f565b91506132a982846127e3565b91506132b482612d8f565b91508190509392505050565b60006132cb8261304d565b91506132d782846127e3565b915081905092915050565b60006132ed8261308d565b91506132f982846127e3565b915081905092915050565b600061330f82613133565b915061331b82846127e3565b915081905092915050565b600060208201905061333b6000830184612753565b92915050565b60006080820190506133566000830187612753565b6133636020830186612753565b6133706040830185613173565b81810360608301526133828184612771565b905095945050505050565b60006040820190506133a26000830185612753565b6133af6020830184613173565b9392505050565b60006020820190506133cb6000830184612762565b92915050565b600060208201905081810360008301526133eb81846127aa565b905092915050565b6000606082019050818103600083015261340d81866127aa565b905061341c6020830185613173565b6134296040830184612753565b949350505050565b6000602082019050818103600083015261344a81612893565b9050919050565b6000602082019050818103600083015261346a816128f9565b9050919050565b6000602082019050818103600083015261348a81612979565b9050919050565b600060208201905081810360008301526134aa816129b9565b9050919050565b600060208201905081810360008301526134ca81612a1f565b9050919050565b600060208201905081810360008301526134ea81612b51565b9050919050565b6000602082019050818103600083015261350a81612bf7565b9050919050565b6000602082019050818103600083015261352a81612c5d565b9050919050565b6000602082019050818103600083015261354a81612cc3565b9050919050565b6000602082019050818103600083015261356a81612d29565b9050919050565b6000602082019050818103600083015261358a81612dcf565b9050919050565b600060208201905081810360008301526135aa81612e0f565b9050919050565b600060208201905081810360008301526135ca81612e75565b9050919050565b600060208201905081810360008301526135ea81612edb565b9050919050565b6000602082019050818103600083015261360a81612f41565b9050919050565b6000602082019050818103600083015261362a81612fe7565b9050919050565b6000602082019050818103600083015261364a816130cd565b9050919050565b60006020820190506136666000830184613173565b92915050565b6000604051905081810181811067ffffffffffffffff8211171561369357613692613a29565b5b8060405250919050565b600067ffffffffffffffff8211156136b8576136b7613a29565b5b601f19601f8301169050602081019050919050565b60008190508160005260206000209050919050565b600081519050919050565b600081519050919050565b600082825260208201905092915050565b600082825260208201905092915050565b600081905092915050565b6000613730826138a4565b915061373b836138a4565b9250827fffffffffffffffffffffffffffffffffffffffffffffffffffffffffffffffff038211156137705761376f61399c565b5b828201905092915050565b6000613786826138a4565b9150613791836138a4565b9250826137a1576137a06139cb565b5b828204905092915050565b60006137b7826138a4565b91506137c2836138a4565b9250817fffffffffffffffffffffffffffffffffffffffffffffffffffffffffffffffff04831182151516156137fb576137fa61399c565b5b828202905092915050565b6000613811826138a4565b915061381c836138a4565b92508282101561382f5761382e61399c565b5b828203905092915050565b600061384582613884565b9050919050565b60008115159050919050565b60007fffffffff0000000000000000000000000000000000000000000000000000000082169050919050565b600073ffffffffffffffffffffffffffffffffffffffff82169050919050565b6000819050919050565b82818337600083830152505050565b60005b838110156138db5780820151818401526020810190506138c0565b838111156138ea576000848401525b50505050565b6000600282049050600182168061390857607f821691505b6020821081141561391c5761391b6139fa565b5b50919050565b600061392d826138a4565b91507fffffffffffffffffffffffffffffffffffffffffffffffffffffffffffffffff8214156139605761395f61399c565b5b600182019050919050565b6000613976826138a4565b9150613981836138a4565b925082613991576139906139cb565b5b828206905092915050565b7f4e487b7100000000000000000000000000000000000000000000000000000000600052601160045260246000fd5b7f4e487b7100000000000000000000000000000000000000000000000000000000600052601260045260246000fd5b7f4e487b7100000000000000000000000000000000000000000000000000000000600052602260045260246000fd5b7f4e487b7100000000000000000000000000000000000000000000000000000000600052604160045260246000fd5b6000601f19601f8301169050919050565b613a728161383a565b8114613a7d57600080fd5b50565b613a898161384c565b8114613a9457600080fd5b50565b613aa081613858565b8114613aab57600080fd5b50565b613ab7816138a4565b8114613ac257600080fd5b5056fe416e204e465420772f20494420257320686173206265656e206d696e74656420746f2025734142434445464748494a4b4c4d4e4f505152535455565758595a6162636465666768696a6b6c6d6e6f707172737475767778797a303132333435363738392b2fa2646970667358221220f826b2458bb750da76df718ed00d3158c71b7e5dd5f8dc412d5e0f6e888789e364736f6c634300080000333c73766720786d6c6e733d27687474703a2f2f7777772e77332e6f72672f323030302f73766727207072657365727665417370656374526174696f3d27784d696e594d696e206d656574272076696577426f783d273020302033353020333530273e3c7374796c653e2e62617365207b2066696c6c3a2077686974653b20666f6e742d66616d696c793a2073657269663b20666f6e742d73697a653a20323470783b207d3c2f7374796c653e3c726563742077696474683d273130302527206865696768743d2731303025272066696c6c3d27272f3e3c7465787420783d273530252720793d273530252720636c6173733d27626173652720646f6d696e616e742d626173656c696e653d276d6964646c652720746578742d616e63686f723d276d6964646c65273e",
    "linkReferences": {},
    "deployedLinkReferences": {}
}